:020000021000EC
:10C0000000000220F9C2010021C3010023C3010086
:10C0100025C3010027C3010029C30100000000005F
:10C020000000000000000000000000002BC3010021
:10C030002DC30100000000002FC3010031C3010027
:10C0400033C3010033C3010033C3010033C3010014
:10C0500033C3010033C3010033C3010033C3010004
:10C0600033C3010033C3010033C3010033C30100F4
:10C0700033C3010033C3010033C3010033C30100E4
:10C0800033C3010033C3010033C3010033C30100D4
:10C0900033C3010033C3010033C3010033C30100C4
:10C0A00033C3010033C3010033C3010033C30100B4
:10C0B00033C3010033C30100000000000000000092
:10C0C00033C3010033C3010033C3010033C3010094
:10C0D00033C3010033C3010033C3010033C3010084
:10C0E00033C3010033C3010033C30100000000006B
:10C0F0000000000033C301000000000033C3010052
:10C10000000000000000000000000000000000002F
:10C11000000000000000000000000000000000001F
:10C12000000000000000000000000000000000000F
:10C1300000000000000000000000000000000000FF
:10C1400000000000000000000000000000000000EF
:10C1500000000000000000000000000000000000DF
:10C1600000000000000000000000000000000000CF
:10C1700000000000000000000000000000000000BF
:10C1800000000000000000000000000000000000AF
:10C19000000000000000000000000000000000009F
:10C1A000000000000000000000000000000000008F
:10C1B000000000000000000000000000000000007F
:10C1C000000000000000000000000000000000006F
:10C1D000000000000000000000000000000000005F
:10C1E000000000000000000000000000000000004F
:10C1F000000000000000000000000000000000003F
:10C200000348044B834202D0034B03B118477047E5
:10C21000081200200812002000000000054806490E
:10C220000B1AD90F01EBA301491002D0034B03B144
:10C230001847704708120020081200200000000074
:10C2400010B5064C237843B9FFF7DAFF044B13B15E
:10C250000448AFF300800123237010BD08120020B2
:10C26000000000000CCA010008B5044B1BB10449D2
:10C270000448AFF30080BDE80840CFE700000000AD
:10C280000C1200200CCA0100A3F5803A704700BFD1
:10C29000154B002B08BF114B9D46FFF7F5FF002102
:10C2A0008B460F461148124A121A00F0A1FA0C4BA5
:10C2B000002B00D098470B4B002B00D09847002054
:10C2C000002104000D000B4800F03AFA00F06CFA6F
:10C2D0002000290000F0B2F800F038FA0000080051
:10C2E00000000000000000000000022008120020F2
:10C2F000B412002075C701000649074A074B9B1A74
:10C3000003DD043BC858D050FBDC00F0EFF8FFF72A
:10C31000BFFF000018CA0100981100200812002079
:10C32000FEE7FEE7FEE7FEE7FEE7FEE7FEE7FEE7E5
:10C33000FEE7FEE70A4B185C1F288ABF09494FF049
:10C34000A04100F01F00D1F804350122824022EA0A
:10C3500003001340C1F80805C1F80C35704700BF51
:10C36000E8C9010000030050C30706D4830742BF99
:10C370002E4B0C22C3F81827704770B44FF080433F
:10C38000D3F84036DA0722D44FF0A04327490322DE
:10C3900040264FF480754FF40074C3F81827C3F893
:10C3A0002027C1F82427C3F83027C3F808654FF4C5
:10C3B0008052C3F80855C1F808458107C3F808251D
:10C3C00003D51A4B0C22C3F8182770BC70474FF0E6
:10C3D0001023D3F8043303F00703072BD4D1144BF5
:10C3E0000122C3F80425D3F80024002AFBD04FF023
:10C3F00010210020D1F804230D4C22F0070242F056
:10C400000402C1F80423C3F80405D4F80034002B57
:10C41000FBD0BFF34F8F0749074BCA6802F4E062B5
:10C420001343CB60BFF34F8F00BFFDE70003005005
:10C4300000E0014000ED00E00400FA0570B50120C5
:10C44000294CFFF791FF44F0010400263046FFF726
:10C4500071FF4FF4FA754FF47A40A047013DFAD1CD
:10C460000136072EF2D14FF416754FF47A40A047EB
:10C47000013DFAD12846FFF75DFF4FF4FA754FF4FE
:10C480007A40A047013DFAD14FF416754FF47A4037
:10C49000A047013DFAD12846FFF74CFF4FF4FA764A
:10C4A0004FF47A40A047013EFAD10135092DF2D16F
:10C4B0004FF416754FF47A40A047013DFAD1284653
:10C4C000FFF738FF4FF4FA764FF47A40A047013E69
:10C4D000FAD10135092DF2D14FF416754FF47A4097
:10C4E000A047013DFAD1B0E7F0C9010010B4814B7B
:10C4F0001B68082B21D0804AD2F8883043F470039F
:10C50000C2F88830BFF34F8FBFF36F8F794B1B6832
:10C51000082B00F0AA804FF01023D3F80022002A45
:10C52000C0F2B680D3F80432002BC0F2B180734B56
:10C53000734A1A605DF8044B70474FF080414FF02A
:10C5400080520020C1F80C016E4BC1F81001C1F8F7
:10C550003805D2F80414C3F82015D2F80814C3F82B
:10C560002415D2F80C14C3F82815D2F81014C3F807
:10C570002C15D2F81414C3F83015D2F81814C3F8D7
:10C580003415D2F81C14C3F84015D2F82014C3F89F
:10C590004415D2F82414C3F84815D2F82814C3F867
:10C5A0004C15D2F82C14C3F85015D2F83014C3F837
:10C5B0005415D2F83414C3F86015D2F83814C3F8FF
:10C5C0006415D2F83C04C3F868054F49D2F840041A
:10C5D000C3F86C050968D2F84424C3F8702505290E
:10C5E00037D84A4B5B5C13B1494B4A4A1A604A4BF5
:10C5F0005B5C63B13F4B49491B68434AFB20C1F870
:10C600001805082B11687FF476AF052921D8444B13
:10C610005B5C93B14348444B364C02681B6824680A
:10C62000394922F00F0203F00F031343082C096865
:10C6300003607FF460AF05290BD83C4B5B5C43B1D2
:10C640002C4B3B4A1B684FF40071082B11607FF4A0
:10C6500052AF4FF08043D3F80024D2077FF54BAFA1
:10C660006FF00102C3F8002445E7274B1B68052B38
:10C6700008D94FF010224FF08043D2F80822C3F8B7
:10C68000582548E72B4AD35C002B3FF444AFF0E732
:10C69000294A0123C2F80435D2F80034002BFBD01C
:10C6A0004FF010231221244AC3F80012D2F80034AC
:10C6B000002BFBD04FF0102312211F4AC3F80412A5
:10C6C000D2F80034002BFBD000231B49C2F80435FC
:10C6D000D1F80034002BFBD0BFF34F8F0649174B26
:10C6E000CA6802F4E0621343CB60BFF34F8F00BF10
:10C6F000FDE700BF3001001000ED00E098110020C0
:10C700000090D00300C000403401001000CA0100B6
:10C710008C5600404881030000CA010000F0004030
:10C7200000CA0100E40E00405802001000CA0100D7
:10C7300040960240F8C9010000E001400400FA05FB
:10C74000002301461A46184600F0A2B808B5074B68
:10C75000044613B1002100F0EBF8054B1868836A1A
:10C7600003B19847204600F031F900BF31C90100FC
:10C7700008CA010038B50A4C0A4D641BA4100AD03F
:10C7800004F18043013B05EB8305013C55F8043976
:10C790009847002CF9D1BDE8384000F01FB900BF20
:10C7A000081200200412002070B50D4E0D4D761BAE
:10C7B000B61006D00024013455F8043B9847A64231
:10C7C000F9D1094E094D761B00F002F9B61006D0DA
:10C7D0000024013455F8043B9847A642F9D170BDB6
:10C7E000001200200012002004120020001200207D
:10C7F000F0B4860746D0541E002A3CD0CAB2034685
:10C8000002E014F1FF3436D303F8012B9D07F8D171
:10C81000032C29D9CDB245EA05250F2C45EA05455B
:10C8200033D9A4F11006360903F1200707EB0617E8
:10C8300003F1100242E9045542E902551032BA42AE
:10C84000F8D1721C14F00C0F03EB021204F00F0667
:10C8500013D0331F23F003030433134442F8045B63
:10C860009342FBD106F003042CB1C9B21C4403F877
:10C87000011B9C42FBD1F0BC704734461346002C90
:10C88000F3D1F8E714460346C2E71A462646E0E726
:10C890002DE9F843224C25680DB36C681F2C3BDC56
:10C8A000984691460F46064688B1D5F8880028B3C9
:10C8B000D0F8003140F824900122A24000EB84011E
:10C8C0001343022EC0F80031C1F8808010D0A31CA1
:10C8D00001346C6045F823700020BDE8F883114EE8
:10C8E000114D2560002ED8D03468C5F88840D4E7B3
:10C8F000D0F804311A43C0F80421E8E70B4B5BB1D0
:10C900004FF48470AFF3008030B100236C68C0E94D
:10C910004033C5F88800CDE74FF0FF30DDE700BFBA
:10C92000B0120020000000002412002000000000CF
:10C930002DE9F04FDFF8908083B0D8F800500190D7
:10C940000F464FF0010A8DB16C68D5F88860013C44
:10C950000CD405F1080B67B12EB106F1800353F832
:10C960002430BB4205D014F1FF34F4D203B0BDE84B
:10C97000F08F6B685BF82420013BA34216BF0023B5
:10C980006C604BF82430002AEDD0D5F80490B6B195
:10C99000D6F800110AFA04F30B4210D0D6F80401BD
:10C9A00056F8241003420CD1019890476B68D8F8D0
:10C9B00000204B4501D1AA42D5D01546C3E7904788
:10C9C000F4E708469047F1E7B0120020FEE700BF09
:10C9D000F8B500BFF8BC08BC9E467047F8B500BF6C
:10C9E000F8BC08BC9E4670470608290C00000000F1
:10C9F0000338FDD87047000000000000010100006E
:10CA00000100000000000000A01100200000000054
:08CA100078F8FF7F010000002F
:10CA18000090D003A01100200000000000000000DA
:10CA280000000000000000000000000000000000FE
:10CA380000000000000000000000000000000000EE
:10CA480000000000000000000000000000000000DE
:10CA580000000000000000000000000000000000CE
:10CA680000000000000000000000000000000000BE
:10CA7800000000000000000069C2010041C201007E
:040000031000C2F92E
:00000001FF
